{
  "contractName": "VerdictVault",
  "abi": [
    {
      "anonymous": false,
      "inputs": [
        {
          "indexed": true,
          "internalType": "string",
          "name": "caseID",
          "type": "string"
        },
        {
          "indexed": false,
          "internalType": "string",
          "name": "ipfsHash",
          "type": "string"
        },
        {
          "indexed": false,
          "internalType": "uint256",
          "name": "timestamp",
          "type": "uint256"
        },
        {
          "indexed": true,
          "internalType": "address",
          "name": "uploader",
          "type": "address"
        }
      ],
      "name": "VerdictStored",
      "type": "event"
    },
    {
      "inputs": [
        {
          "internalType": "string",
          "name": "_caseID",
          "type": "string"
        },
        {
          "internalType": "string",
          "name": "_ipfsHash",
          "type": "string"
        }
      ],
      "name": "storeVerdict",
      "outputs": [],
      "stateMutability": "nonpayable",
      "type": "function"
    },
    {
      "inputs": [
        {
          "internalType": "string",
          "name": "_caseID",
          "type": "string"
        }
      ],
      "name": "getVerdict",
      "outputs": [
        {
          "internalType": "string",
          "name": "ipfsHash",
          "type": "string"
        },
        {
          "internalType": "uint256",
          "name": "timestamp",
          "type": "uint256"
        },
        {
          "internalType": "address",
          "name": "uploader",
          "type": "address"
        }
      ],
      "stateMutability": "view",
      "type": "function",
      "constant": true
    }
  ],
  "bytecode": "0x608060405234801561001057600080fd5b50610a0f806100206000396000f3fe608060405234801561001057600080fd5b50600436106100365760003560e01c80633d777cfe1461003b578063692cf64a1461006d575b600080fd5b61005560048036038101906100509190610592565b610089565b604051610064939291906107b4565b60405180910390f35b610087600480360381019061008291906105d3565b6102cb565b005b60606000806000808560405161009f919061076d565b908152602001604051809103902060010180546100bb90610938565b905014156100fe576040517f08c379a00000000000000000000000000000000000000000000000000000000081526004016100f5906107f2565b60405180910390fd5b6000808560405161010f919061076d565b908152602001604051809103902060405180608001604052908160008201805461013890610938565b80601f016020809104026020016040519081016040528092919081815260200182805461016490610938565b80156101b15780601f10610186576101008083540402835291602001916101b1565b820191906000526020600020905b81548152906001019060200180831161019457829003601f168201915b505050505081526020016001820180546101ca90610938565b80601f01602080910402602001604051908101604052809291908181526020018280546101f690610938565b80156102435780601f1061021857610100808354040283529160200191610243565b820191906000526020600020905b81548152906001019060200180831161022657829003601f168201915b50505050508152602001600282015481526020016003820160009054906101000a900473ffffffffffffffffffffffffffffffffffffffff1673ffffffffffffffffffffffffffffffffffffffff1673ffffffffffffffffffffffffffffffffffffffff16815250509050806000015181604001518260600151935093509350509193909250565b600080836040516102dc919061076d565b908152602001604051809103902060010180546102f890610938565b90501461033a576040517f08c379a000000000000000000000000000000000000000000000000000000000815260040161033190610812565b60405180910390fd5b60405180608001604052808281526020018381526020014281526020013373ffffffffffffffffffffffffffffffffffffffff16815250600083604051610381919061076d565b908152602001604051809103902060008201518160000190805190602001906103ab929190610487565b5060208201518160010190805190602001906103c8929190610487565b506040820151816002015560608201518160030160006101000a81548173ffffffffffffffffffffffffffffffffffffffff021916908373ffffffffffffffffffffffffffffffffffffffff1602179055509050503373ffffffffffffffffffffffffffffffffffffffff1682604051610442919061076d565b60405180910390207fb2197db5e3bac9bf73ff287f7a940baa28c57189159c3c241b66873fe815b7e9834260405161047b929190610784565b60405180910390a35050565b82805461049390610938565b90600052602060002090601f0160209004810192826104b557600085556104fc565b82601f106104ce57805160ff19168380011785556104fc565b828001600101855582156104fc579182015b828111156104fb5782518255916020019190600101906104e0565b5b509050610509919061050d565b5090565b5b8082111561052657600081600090555060010161050e565b5090565b600061053d61053884610863565b610832565b90508281526020810184848401111561055557600080fd5b6105608482856108f6565b509392505050565b600082601f83011261057957600080fd5b813561058984826020860161052a565b91505092915050565b6000602082840312156105a457600080fd5b600082013567ffffffffffffffff8111156105be57600080fd5b6105ca84828501610568565b91505092915050565b600080604083850312156105e657600080fd5b600083013567ffffffffffffffff81111561060057600080fd5b61060c85828601610568565b925050602083013567ffffffffffffffff81111561062957600080fd5b61063585828601610568565b9150509250929050565b610648816108ba565b82525050565b600061065982610893565b610663818561089e565b9350610673818560208601610905565b61067c816109c8565b840191505092915050565b600061069282610893565b61069c81856108af565b93506106ac818560208601610905565b80840191505092915050565b60006106c5601f8361089e565b91507f4e6f207665726469637420666f756e6420666f72207468697320636173652e006000830152602082019050919050565b600061070560258361089e565b91507f5665726469637420616c72656164792065786973747320666f7220746869732060008301527f636173652e0000000000000000000000000000000000000000000000000000006020830152604082019050919050565b610767816108ec565b82525050565b60006107798284610687565b915081905092915050565b6000604082019050818103600083015261079e818561064e565b90506107ad602083018461075e565b9392505050565b600060608201905081810360008301526107ce818661064e565b90506107dd602083018561075e565b6107ea604083018461063f565b949350505050565b6000602082019050818103600083015261080b816106b8565b9050919050565b6000602082019050818103600083015261082b816106f8565b9050919050565b6000604051905081810181811067ffffffffffffffff8211171561085957610858610999565b5b8060405250919050565b600067ffffffffffffffff82111561087e5761087d610999565b5b601f19601f8301169050602081019050919050565b600081519050919050565b600082825260208201905092915050565b600081905092915050565b60006108c5826108cc565b9050919050565b600073ffffffffffffffffffffffffffffffffffffffff82169050919050565b6000819050919050565b82818337600083830152505050565b60005b83811015610923578082015181840152602081019050610908565b83811115610932576000848401525b50505050565b6000600282049050600182168061095057607f821691505b602082108114156109645761096361096a565b5b50919050565b7f4e487b7100000000000000000000000000000000000000000000000000000000600052602260045260246000fd5b7f4e487b7100000000000000000000000000000000000000000000000000000000600052604160045260246000fd5b6000601f19601f830116905091905056fea2646970667358221220578a02cc2ca54b49c11a977423619104714e5a3ed5fd220fdd870587597f498e64736f6c63430008000033",
  "immutableReferences": {},
  "source": "// SPDX-License-Identifier: MIT\r\npragma solidity ^0.8.0;\r\n\r\ncontract VerdictVault {\r\n    struct Verdict {\r\n        string ipfsHash;\r\n        string caseID;\r\n        uint256 timestamp;\r\n        address uploader;\r\n    }\r\n\r\n    mapping(string => Verdict) private verdicts;\r\n\r\n    event VerdictStored(string indexed caseID, string ipfsHash, uint256 timestamp, address indexed uploader);\r\n\r\n    function storeVerdict(string memory _caseID, string memory _ipfsHash) public {\r\n        require(bytes(verdicts[_caseID].caseID).length == 0, \"Verdict already exists for this case.\");\r\n        verdicts[_caseID] = Verdict(_ipfsHash, _caseID, block.timestamp, msg.sender);\r\n        emit VerdictStored(_caseID, _ipfsHash, block.timestamp, msg.sender);\r\n    }\r\n\r\n    function getVerdict(string memory _caseID) public view returns (string memory ipfsHash, uint256 timestamp, address uploader) {\r\n        require(bytes(verdicts[_caseID].caseID).length != 0, \"No verdict found for this case.\");\r\n        Verdict memory verdict = verdicts[_caseID];\r\n        return (verdict.ipfsHash, verdict.timestamp, verdict.uploader);\r\n    }\r\n}\r\n",
  "sourcePath": "C:\\Users\\Sampath Shankar\\Desktop\\VerdictVault\\contracts\\VerdictVault.sol",
  "compiler": {
    "name": "solc",
    "version": "0.8.0+commit.c7dfd78e.Emscripten.clang"
  },
  "schemaVersion": "3.4.16",
  "updatedAt": "2025-04-07T04:10:25.076Z",
  "networkType": "ethereum",
  "devdoc": {
    "kind": "dev",
    "methods": {},
    "version": 1
  },
  "userdoc": {
    "kind": "user",
    "methods": {},
    "version": 1
  }
}