{
  "contractName": "VerdictVault",
  "abi": [
    {
      "anonymous": false,
      "inputs": [
        {
          "indexed": false,
          "internalType": "string",
          "name": "caseID",
          "type": "string"
        },
        {
          "indexed": false,
          "internalType": "string",
          "name": "ipfsHash",
          "type": "string"
        },
        {
          "indexed": false,
          "internalType": "uint256",
          "name": "timestamp",
          "type": "uint256"
        },
        {
          "indexed": false,
          "internalType": "address",
          "name": "uploader",
          "type": "address"
        }
      ],
      "name": "VerdictStored",
      "type": "event"
    },
    {
      "inputs": [
        {
          "internalType": "string",
          "name": "_caseID",
          "type": "string"
        },
        {
          "internalType": "string",
          "name": "_ipfsHash",
          "type": "string"
        }
      ],
      "name": "storeVerdict",
      "outputs": [],
      "stateMutability": "nonpayable",
      "type": "function"
    },
    {
      "inputs": [
        {
          "internalType": "string",
          "name": "_caseID",
          "type": "string"
        }
      ],
      "name": "getVerdict",
      "outputs": [
        {
          "internalType": "string",
          "name": "",
          "type": "string"
        },
        {
          "internalType": "uint256",
          "name": "",
          "type": "uint256"
        },
        {
          "internalType": "address",
          "name": "",
          "type": "address"
        }
      ],
      "stateMutability": "view",
      "type": "function",
      "constant": true
    }
  ],
  "bytecode": "0x608060405234801561001057600080fd5b5061095a806100206000396000f3fe608060405234801561001057600080fd5b50600436106100365760003560e01c80633d777cfe1461003b578063692cf64a1461006d575b600080fd5b610055600480360381019061005091906104ba565b610089565b604051610064939291906106ff565b60405180910390f35b610087600480360381019061008291906104fb565b61021c565b005b60606000806000808560405161009f9190610695565b908152602001604051809103902060010180546100bb90610883565b905014156100fe576040517f08c379a00000000000000000000000000000000000000000000000000000000081526004016100f59061073d565b60405180910390fd5b60008460405161010e9190610695565b908152602001604051809103902060000160008560405161012f9190610695565b9081526020016040518091039020600201546000866040516101519190610695565b908152602001604051809103902060030160009054906101000a900473ffffffffffffffffffffffffffffffffffffffff1682805461018f90610883565b80601f01602080910402602001604051908101604052809291908181526020018280546101bb90610883565b80156102085780601f106101dd57610100808354040283529160200191610208565b820191906000526020600020905b8154815290600101906020018083116101eb57829003601f168201915b505050505092509250925092509193909250565b6000808360405161022d9190610695565b9081526020016040518091039020600101805461024990610883565b90501461028b576040517f08c379a00000000000000000000000000000000000000000000000000000000081526004016102829061075d565b60405180910390fd5b60405180608001604052808281526020018381526020014281526020013373ffffffffffffffffffffffffffffffffffffffff168152506000836040516102d29190610695565b908152602001604051809103902060008201518160000190805190602001906102fc9291906103af565b5060208201518160010190805190602001906103199291906103af565b506040820151816002015560608201518160030160006101000a81548173ffffffffffffffffffffffffffffffffffffffff021916908373ffffffffffffffffffffffffffffffffffffffff1602179055509050507fb2197db5e3bac9bf73ff287f7a940baa28c57189159c3c241b66873fe815b7e9828242336040516103a394939291906106ac565b60405180910390a15050565b8280546103bb90610883565b90600052602060002090601f0160209004810192826103dd5760008555610424565b82601f106103f657805160ff1916838001178555610424565b82800160010185558215610424579182015b82811115610423578251825591602001919060010190610408565b5b5090506104319190610435565b5090565b5b8082111561044e576000816000905550600101610436565b5090565b6000610465610460846107ae565b61077d565b90508281526020810184848401111561047d57600080fd5b610488848285610841565b509392505050565b600082601f8301126104a157600080fd5b81356104b1848260208601610452565b91505092915050565b6000602082840312156104cc57600080fd5b600082013567ffffffffffffffff8111156104e657600080fd5b6104f284828501610490565b91505092915050565b6000806040838503121561050e57600080fd5b600083013567ffffffffffffffff81111561052857600080fd5b61053485828601610490565b925050602083013567ffffffffffffffff81111561055157600080fd5b61055d85828601610490565b9150509250929050565b61057081610805565b82525050565b6000610581826107de565b61058b81856107e9565b935061059b818560208601610850565b6105a481610913565b840191505092915050565b60006105ba826107de565b6105c481856107fa565b93506105d4818560208601610850565b80840191505092915050565b60006105ed601f836107e9565b91507f4e6f207665726469637420666f756e6420666f72207468697320636173652e006000830152602082019050919050565b600061062d6025836107e9565b91507f5665726469637420616c72656164792065786973747320666f7220746869732060008301527f636173652e0000000000000000000000000000000000000000000000000000006020830152604082019050919050565b61068f81610837565b82525050565b60006106a182846105af565b915081905092915050565b600060808201905081810360008301526106c68187610576565b905081810360208301526106da8186610576565b90506106e96040830185610686565b6106f66060830184610567565b95945050505050565b600060608201905081810360008301526107198186610576565b90506107286020830185610686565b6107356040830184610567565b949350505050565b60006020820190508181036000830152610756816105e0565b9050919050565b6000602082019050818103600083015261077681610620565b9050919050565b6000604051905081810181811067ffffffffffffffff821117156107a4576107a36108e4565b5b8060405250919050565b600067ffffffffffffffff8211156107c9576107c86108e4565b5b601f19601f8301169050602081019050919050565b600081519050919050565b600082825260208201905092915050565b600081905092915050565b600061081082610817565b9050919050565b600073ffffffffffffffffffffffffffffffffffffffff82169050919050565b6000819050919050565b82818337600083830152505050565b60005b8381101561086e578082015181840152602081019050610853565b8381111561087d576000848401525b50505050565b6000600282049050600182168061089b57607f821691505b602082108114156108af576108ae6108b5565b5b50919050565b7f4e487b7100000000000000000000000000000000000000000000000000000000600052602260045260246000fd5b7f4e487b7100000000000000000000000000000000000000000000000000000000600052604160045260246000fd5b6000601f19601f830116905091905056fea2646970667358221220c89b828afe98af2c393e63c3623666b8e48fa0af418869fb69f847ab9a88e28b64736f6c63430008000033",
  "immutableReferences": {},
  "source": "// SPDX-License-Identifier: MIT\r\npragma solidity ^0.8.0;\r\n\r\ncontract VerdictVault {\r\n    struct Verdict {\r\n        string ipfsHash;\r\n        string caseID;\r\n        uint timestamp;\r\n        address uploader;\r\n    }\r\n\r\n    mapping(string => Verdict) private verdicts; \r\n\r\n    event VerdictStored(string caseID, string ipfsHash, uint timestamp, address uploader);\r\n\r\n    function storeVerdict(string memory _caseID, string memory _ipfsHash) public {\r\n        require(bytes(verdicts[_caseID].caseID).length == 0, \"Verdict already exists for this case.\");\r\n        verdicts[_caseID] = Verdict(_ipfsHash, _caseID, block.timestamp, msg.sender);\r\n        emit VerdictStored(_caseID, _ipfsHash, block.timestamp, msg.sender);\r\n    }\r\n\r\n    function getVerdict(string memory _caseID) public view returns (string memory, uint, address) {\r\n        require(bytes(verdicts[_caseID].caseID).length != 0, \"No verdict found for this case.\");\r\n        return (verdicts[_caseID].ipfsHash, verdicts[_caseID].timestamp, verdicts[_caseID].uploader);\r\n    }\r\n}\r\n",
  "sourcePath": "C:\\Users\\Sampath Shankar\\Desktop\\VerdictVault\\contracts\\VerdictVault.sol",
  "compiler": {
    "name": "solc",
    "version": "0.8.0+commit.c7dfd78e.Emscripten.clang"
  },
  "schemaVersion": "3.4.16",
  "updatedAt": "2025-04-03T23:39:30.479Z",
  "networkType": "ethereum",
  "devdoc": {
    "kind": "dev",
    "methods": {},
    "version": 1
  },
  "userdoc": {
    "kind": "user",
    "methods": {},
    "version": 1
  }
}